012020030496YDUQ3F      020YDUQS PART  ON      NM   R$  000000000513200000000051980000000004900000000000509300000000050110000000005006000000000501104020000000000000022708000000000115666814000000000000009999123100000010000000000000BRYDUQACNOR3100
012020030596YDUQ3F      020YDUQS PART  ON      NM   R$  000000000499600000000049960000000004560000000000481900000000046200000000004620000000000473903908000000000000019488000000000093931840000000000000009999123100000010000000000000BRYDUQACNOR3100
012020030696YDUQ3F      020YDUQS PART  ON      NM   R$  000000000455000000000046130000000004390000000000447600000000045070000000004455000000000450703991000000000000016684000000000074682785000000000000009999123100000010000000000000BRYDUQACNOR3100
012020030996YDUQ3F      020YDUQS PART  ON      NM   R$  000000000405000000000042470000000003927000000000410600000000041500000000004057000000000415000892000000000000014483000000000059478756000000000000009999123100000010000000000000BRYDUQACNOR3100
012020031096YDUQ3F      020YDUQS PART  ON      NM   R$  000000000424800000000044940000000004154000000000432500000000044940000000004403000000000443001628000000000000016289000000000070451009000000000000009999123100000010000000000000BRYDUQACNOR3100
012020031196YDUQ3F      020YDUQS PART  ON      NM   R$  000000000442000000000044430000000003852000000000419400000000041510000000004151000000000421800977000000000000014593000000000061216699000000000000009999123100000010000000000000BRYDUQACNOR3100
012020031296YDUQ3F      020YDUQS PART  ON      NM   R$  000000000379900000000037990000000003200000000000351600000000036210000000003621000000000364400707000000000000011135000000000039160460000000000000009999123100000010000000000000BRYDUQACNOR3100
012020031396YDUQ3F      020YDUQS PART  ON      NM   R$  000000000382900000000040870000000003324000000000352100000000034600000000003460000000000346101184000000000000023035000000000081107956000000000000009999123100000010000000000000BRYDUQACNOR3100
012020030502YUMR34      010YUM BRANDS  DRN          R$  000000002106500000000210650000000021065000000002106500000000210650000000000000000000000000000001000000000000003000000000000063195000000000000000009999123100000010000000000000BRYUMRBDR006102
012020031002YUMR34      010YUM BRANDS  DRN          R$  000000001975000000000197500000000019750000000001975000000000197500000000000000000000000000000001000000000000004400000000000086900000000000000000009999123100000010000000000000BRYUMRBDR006102
012020031302YUMR34      010YUM BRANDS  DRN          R$  000000001855000000000185500000000018550000000001855000000000185500000000000000000000000000000007000000000000001300000000000024115000000000000000009999123100000010000000000000BRYUMRBDR006102
012020030396YUMR34F     020YUM BRANDS  DRN          R$  000000002095500000000209550000000020955000000002095500000000209550000000000000000000000000000001000000000000000009000000000000188595000000000000009999123100000010000000000000BRYUMRBDR006102
012020031102Z1IO34      010ZIONSBANCORPDRN          R$  000000001462100000000146210000000014621000000001462100000000146210000000000000000000000000000002000000000000000300000000000004386300000000000000009999123100000010000000000000BRZ1IOBDR008101
012020031702A1AP34      010ADVANCE AUTODRN          R$  000000001218100000000121810000000012181000000001218100000000121810000000000000000000000000000004000000000000012030000000000146537430000000000000009999123100000010000000000000BRA1APBDR001100
012020031902A1AP34      010ADVANCE AUTODRN ED       R$  000000001120200000000112020000000011202000000001120200000000112020000000000000000000000000000001000000000000000400000000000004480800000000000000009999123100000010000000000000BRA1APBDR001101
012020032602A1AP34      010ADVANCE AUTODRN ED       R$  000000001148000000000114800000000011480000000001148000000000114800000000000000000000000000000001000000000000001950000000000022386000000000000000009999123100000010000000000000BRA1APBDR001101
012020032302A1BM34      010ABIOMED INC DRN          R$  000000001698800000000169880000000016988000000001698800000000169880000000000000000000000000000001000000000000000300000000000005096400000000000000009999123100000010000000000000BRA1BMBDR006100
012020032502A1BM34      010ABIOMED INC DRN          R$  000000001847000000000184700000000018470000000001847000000000184700000000000000000000000000000001000000000000000300000000000005541000000000000000009999123100000010000000000000BRA1BMBDR006100
012020031902A1DI34      010ANALOG DEVICDRN          R$  000000002274000000000229200000000022740000000002283000000000229200000000000000000000000000000002000000000000000100000000000002283000000000000000009999123100000010000000000000BRA1DIBDR000101
012020032602A1DM34      010ARCHER DANIEDRN          R$  000000001714700000000171470000000017147000000001714700000000171470000000000000000000001714700001000000000000000100000000000001714700000000000000009999123100000010000000000000BRA1DMBDR002101
012020032502A1EE34      010AMEREN CORP DRN          R$  000000001693400000000169340000000016934000000001693400000000169340000000000000000000000000000001000000000000000400000000000006773600000000000000009999123100000010000000000000BRA1EEBDR007101
012020032302A1EN34      010ALLIANT ENERDRN          R$  000000002027300000000202730000000020273000000002027300000000202730000000000000000000000000000005000000000000000300000000000006081900000000000000009999123100000010000000000000BRA1ENBDR008101
012020032502A1EN34      010ALLIANT ENERDRN          R$  000000002225300000000222530000000022253000000002225300000000222530000000000000000000000000000001000000000000000300000000000006675900000000000000009999123100000010000000000000BRA1ENBDR008101
012020031702A1EP34      010AMERICAN ELEDRN          R$  000000002340000000000234000000000023400000000002340000000000234000000000000000000000000000000001000000000000001800000000000042120000000000000000009999123100000010000000000000BRA1EPBDR003101
012020031802A1EP34      010AMERICAN ELEDRN          R$  000000002257600000000225760000000022540000000002254200000000225400000000000000000000000000000002000000000000001400000000000031559600000000000000009999123100000010000000000000BRA1EPBDR003101
012020031902A1EP34      010AMERICAN ELEDRN          R$  000000002152600000000215260000000020715000000002102000000000207150000000000000000000000000000004000000000000000280000000000005885800000000000000009999123100000010000000000000BRA1EPBDR003101
012020032302A1EP34      010AMERICAN ELEDRN          R$  000000001728500000000172850000000017285000000001728500000000172850000000000000000000000000000001000000000000000300000000000005185500000000000000009999123100000010000000000000BRA1EPBDR003101
012020032402A1EP34      010AMERICAN ELEDRN          R$  000000001803000000000180300000000018030000000001803000000000180300000000000000000000000000000001000000000000000400000000000007212000000000000000009999123100000010000000000000BRA1EPBDR003101
012020032602A1EP34      010AMERICAN ELEDRN          R$  000000002010700000000201070000000020107000000002010700000000201070000000000000000000000000000001000000000000002900000000000058310300000000000000009999123100000010000000000000BRA1EPBDR003101
012020031702A1ES34      010AES CORP    DRN          R$  000000000509200000000054000000000005092000000000524600000000054000000000000000000000000000000008000000000000001400000000000007344400000000000000009999123100000010000000000000BRA1ESBDR007101
012020031902A1ES34      010AES CORP    DRN          R$  000000000479600000000047960000000004796000000000479600000000047960000000000000000000000000000004000000000000000700000000000003357200000000000000009999123100000010000000000000BRA1ESBDR007101
012020032002A1ES34      010AES CORP    DRN          R$  000000000573600000000059590000000005734000000000584800000000059590000000000000000000000000000031000000000000003710000000000021698400000000000000009999123100000010000000000000BRA1ESBDR007101
012020032302A1ES34      010AES CORP    DRN          R$  000000000608400000000062140000000005944000000000606900000000059440000000000000000000000000000021000000000000003680000000000022335810000000000000009999123100000010000000000000BRA1ESBDR007101
012020032402A1ES34      010AES CORP    DRN          R$  000000000657800000000065780000000006578000000000657800000000065780000000000000000000000000000009000000000000000700000000000004604600000000000000009999123100000010000000000000BRA1ESBDR007101
012020032502A1ES34      010AES CORP    DRN          R$  000000000657500000000065750000000006448000000000651100000000064480000000000000000000000000000006000000000000001400000000000009116100000000000000009999123100000010000000000000BRA1ESBDR007101
012020032302A1FL34      010AFLAC INC   DRN          R$  000000001340300000000134510000000013403000000001342700000000134510000000000000000000000000000005000000000000000600000000000008056200000000000000009999123100000010000000000000BRA1FLBDR009101
012020032402A1FL34      010AFLAC INC   DRN          R$  000000001459000000000145900000000014590000000001459000000000145900000000000000000000000000000001000000000000000040000000000000583600000000000000009999123100000010000000000000BRA1FLBDR009101
012020032502A1FL34      010AFLAC INC   DRN          R$  000000001860100000000186010000000018601000000001860100000000186010000000000000000000000000000001000000000000000300000000000005580300000000000000009999123100000010000000000000BRA1FLBDR009101
012020032302A1IV34      010APARTMENT INDRN          R$  000000001317200000000131720000000013172000000001317200000000131720000000000000000000000000000004000000000000000300000000000003951600000000000000009999123100000010000000000000BRA1IVBDR002101
012020032602A1IV34      010APARTMENT INDRN          R$  000000001616600000000161660000000016166000000001616600000000161660000000000000000000000000000002000000000000000300000000000004849800000000000000009999123100000010000000000000BRA1IVBDR002101
012020032302A1JG34      010ARTHUR J GALDRN          R$  000000001749100000000174910000000017491000000001749100000000174910000000000000000000000000000002000000000000000300000000000005247300000000000000009999123100000010000000000000BRA1JGBDR001101
012020032302A1KA34      010AKAMAI TECHNDRN          R$  000000002175700000000217570000000021757000000002175700000000217570000000000000000000000000000001000000000000003830000000000083329310000000000000009999123100000010000000000000BRA1KABDR002100
012020031702A1LG34      010ALIGN TECHNODRN          R$  000000001916100000000191610000000019161000000001916100000000191610000000000000000000000000000001000000000000000200000000000003832200000000000000009999123100000010000000000000BRA1LGBDR007100
012020031902A1LG34      010ALIGN TECHNODRN          R$  000000001768000000000176800000000017680000000001768000000000176800000000000000000000000000000001000000000000000080000000000001414400000000000000009999123100000010000000000000BRA1LGBDR007100
012020032502A1LG34      010ALIGN TECHNODRN          R$  000000002281900000000232760000000022819000000002304700000000232760000000000000000000000000000002000000000000000400000000000009219000000000000000009999123100000010000000000000BRA1LGBDR007100
012020031702A1LK34      010ALASKA AIR GDRN          R$  000000001724400000000172440000000017244000000001724400000000172440000000000000000000000000000002000000000000000200000000000003448800000000000000009999123100000010000000000000BRA1LKBDR009101
012020031902A1LK34      010ALASKA AIR GDRN          R$  000000001267600000000126760000000012676000000001267600000000126760000000000000000000000000000001000000000000000200000000000002535200000000000000009999123100000010000000000000BRA1LKBDR009101
012020032002A1LK34      010ALASKA AIR GDRN          R$  000000001280000000000135600000000012800000000001350100000000135600000000000000000000000000000007000000000000000410000000000005535680000000000000009999123100000010000000000000BRA1LKBDR009101
012020032302A1LK34      010ALASKA AIR GDRN          R$  000000001206900000000121220000000011954000000001204300000000119610000000000000000000000000000007000000000000000650000000000007828100000000000000009999123100000010000000000000BRA1LKBDR009101
012020032402A1LK34      010ALASKA AIR GDRN          R$  000000001578600000000157860000000015786000000001578600000000157860000000000000000000000000000001000000000000000100000000000001578600000000000000009999123100000010000000000000BRA1LKBDR009101
012020032502A1LK34      010ALASKA AIR GDRN          R$  000000001633800000000163400000000015501000000001594100000000157100000000000000000000000000000005000000000000000580000000000009246000000000000000009999123100000010000000000000BRA1LKBDR009101
012020031702A1LL34      010ALLIANCE DATDRN          R$  000000000382800000000038280000000003617000000000372200000000036170000000000000000000000000000006000000000000001000000000000003722500000000000000009999123100000010000000000000BRA1LLBDR007101
012020031902A1LL34      010ALLIANCE DATDRN          R$  000000000296500000000029650000000002965000000000296500000000029650000000000000000000000000000002000000000000000500000000000001482500000000000000009999123100000010000000000000BRA1LLBDR007101
012020032002A1LL34      010ALLIANCE DATDRN          R$  000000000374600000000038320000000003504000000000369500000000035040000000000000000000000383200006000000000000001960000000000007242220000000000000009999123100000010000000000000BRA1LLBDR007101
012020032302A1LL34      010ALLIANCE DATDRN          R$  000000000391000000000039100000000003736000000000384400000000037360000000000000000000000000000007000000000000002100000000000008074200000000000000009999123100000010000000000000BRA1LLBDR007101
012020032402A1LL34      010ALLIANCE DATDRN          R$  000000000492700000000049830000000004927000000000495300000000049830000000000000000000000000000004000000000000000950000000000004705850000000000000009999123100000010000000000000BRA1LLBDR007101
012020032602A1LL34      010ALLIANCE DATDRN          R$  000000000466800000000046680000000004668000000000466800000000046680000000000000000000000000000001000000000000000100000000000000466800000000000000009999123100000010000000000000BRA1LLBDR007101
012020032302A1LX34      010ALEXION PHARDRN          R$  000000002059700000000207290000000020597000000002060600000000207290000000000000000000000000000004000000000000004080000000000084075360000000000000009999123100000010000000000000BRA1LXBDR002100
012020031802A1MD34      010ADVANCED MICDRN          R$  000000002067600000000206760000000020676000000002067600000000206760000000000000000000000000000002000000000000000400000000000008270400000000000000009999123100000010000000000000BRA1MDBDR002100
012020031902A1MD34      010ADVANCED MICDRN          R$  000000002086500000000209790000000020865000000002089600000000209700000000000000000000000000000003000000000000000560000000000011701920000000000000009999123100000010000000000000BRA1MDBDR002100
012020032402A1MD34      010ADVANCED MICDRN          R$  000000002351300000000235130000000023513000000002351300000000235130000000000000000000002560000001000000000000000900000000000021161700000000000000009999123100000010000000000000BRA1MDBDR002100
012020032502A1MP34      010AMERIPRISE FDRN          R$  000000001299300000000129930000000012993000000001299300000000129930000000000000000000000000000001000000000000000400000000000005197200000000000000009999123100000010000000000000BRA1MPBDR006101
012020031702A1MT34      010APPLIED MATEDRN          R$  000000002222900000000222290000000022229000000002222900000000222290000000000000000000000000000001000000000000000500000000000011114500000000000000009999123100000010000000000000BRA1MTBDR008101
012020031802A1MT34      010APPLIED MATEDRN          R$  000000001947000000000199280000000019470000000001977500000000199280000000000000000000000000000002000000000000001500000000000029663000000000000000009999123100000010000000000000BRA1MTBDR008101
012020031902A1MT34      010APPLIED MATEDRN          R$  000000002058000000000214400000000020580000000002071100000000213000000000000000000000000000000003000000000000000840000000000017397800000000000000009999123100000010000000000000BRA1MTBDR008101
012020032002A1MT34      010APPLIED MATEDRN          R$  000000002125400000000212540000000021254000000002125400000000212540000000000000000000000000000001000000000000001000000000000021254000000000000000009999123100000010000000000000BRA1MTBDR008101
012020032302A1MT34      010APPLIED MATEDRN          R$  000000002033100000000203310000000020331000000002033100000000203310000000000000000000000000000002000000000000000300000000000006099300000000000000009999123100000010000000000000BRA1MTBDR008101
012020032402A1MT34      010APPLIED MATEDRN          R$  000000002299500000000229950000000022230000000002265300000000222450000000022101000000000000000003000000000000001100000000000024919350000000000000009999123100000010000000000000BRA1MTBDR008101
012020032502A1MT34      010APPLIED MATEDRN          R$  000000002277200000000227720000000022772000000002277200000000227720000000022772000000000000000001000000000000000200000000000004554400000000000000009999123100000010000000000000BRA1MTBDR008101
012020032602A1MT34      010APPLIED MATEDRN          R$  000000002405300000000240530000000024053000000002405300000000240530000000000000000000000000000001000000000000000500000000000012026500000000000000009999123100000010000000000000BRA1MTBDR008101
012020031702A1PA34      010APACHE CORP DRN          R$  000000000254100000000026050000000002526000000000256400000000025760000000000000000000000000000025000000000000004900000000000012565000000000000000009999123100000010000000000000BRA1PABDR001101
012020031902A1PA34      010APACHE CORP DRN          R$  000000000250900000000026550000000002441000000000251300000000026550000000000000000000000000000027000000000000003290000000000008269800000000000000009999123100000010000000000000BRA1PABDR001101
012020032002A1PA34      010APACHE CORP DRN          R$  000000000236900000000027200000000002369000000000256400000000027020000000000000000000000000000065000000000000010400000000000026673800000000000000009999123100000010000000000000BRA1PABDR001101
012020032302A1PA34      010APACHE CORP DRN          R$  000000000237400000000024340000000002274000000000237300000000022740000000000000000000000000000015000000000000005000000000000011868400000000000000009999123100000010000000000000BRA1PABDR001101
012020032402A1PA34      010APACHE CORP DRN          R$  000000000251800000000025180000000002516000000000251700000000025160000000000000000000000000000006000000000000001400000000000003523800000000000000009999123100000010000000000000BRA1PABDR001101
012020032502A1PA34      010APACHE CORP DRN          R$  000000000306700000000030710000000002717000000000300000000000029840000000002717000000000000000017000000000000002510000000000007530460000000000000009999123100000010000000000000BRA1PABDR001101
012020032602A1PA34      010APACHE CORP DRN          R$  000000000297400000000029740000000002900000000000293700000000029000000000000000000000000000000006000000000000001400000000000004111800000000000000009999123100000010000000000000BRA1PABDR001101
012020032502A1PD34      010AIR PRODUCTSDRN          R$  000000002451200000000245120000000024512000000002451200000000245120000000000000000000000000000001000000000000000300000000000007353600000000000000009999123100000010000000000000BRA1PDBDR005100
012020032302A1TT34      010ALLSTATE CORDRN          R$  000000001854400000000185440000000018544000000001854400000000185440000000000000000000000000000002000000000000000300000000000005563200000000000000009999123100000010000000000000BRA1TTBDR003101
012020032502A1TT34      010ALLSTATE CORDRN          R$  000000002112400000000211240000000021124000000002112400000000211240000000000000000000000000000002000000000000000300000000000006337200000000000000009999123100000010000000000000BRA1TTBDR003101
012020032502A1UT34      010AUTODESK INCDRN          R$  000000001850000000000185000000000018500000000001850000000000185000000000000000000000000000000001000000000000000010000000000000185000000000000000009999123100000010000000000000BRA1UTBDR001100
012020032402A1VB34      010AVALONBAY CODRN          R$  000000001646000000000164600000000016460000000001646000000000164600000000000107000000000000000002000000000000000200000000000003292000000000000000009999123100000010000000000000BRA1VBBDR007100
012020032502A1WK34      010AMERICAN WATDRN          R$  000000001301600000000130160000000013016000000001301600000000130160000000000000000000000000000001000000000000000500000000000006508000000000000000009999123100000010000000000000BRA1WKBDR006101
012020031702AALL34      010AMERICAN AIRDRN          R$  000000000767000000000089550000000007670000000000839900000000089550000000000000000000000000000007000000000000001200000000000010079200000000000000009999123100000010000000000000BRAALLBDR003115
012020031902AALL34      010AMERICAN AIRDRN          R$  000000000593100000000059310000000005300000000000563500000000053000000000005000000000000000000013000000000000000850000000000004790000000000000000009999123100000010000000000000BRAALLBDR003115
012020032002AALL34      010AMERICAN AIRDRN          R$  000000000531000000000059090000000005300000000000564400000000053400000000005000000000000000000053000000000000006550000000000036969900000000000000009999123100000010000000000000BRAALLBDR003115
012020032302AALL34      010AMERICAN AIRDRN          R$  000000000555000000000056740000000005461000000000557300000000054610000000005150000000000540000038000000000000005360000000000029872850000000000000009999123100000010000000000000BRAALLBDR003115
012020032402AALL34      010AMERICAN AIRDRN          R$  000000000599900000000070940000000005999000000000680800000000070400000000005000000000000000000023000000000000002320000000000015795720000000000000009999123100000010000000000000BRAALLBDR003115
012020032502AALL34      010AMERICAN AIRDRN          R$  000000000812200000000081220000000007400000000000788500000000076190000000007500000000000761900030000000000000002690000000000021211990000000000000009999123100000010000000000000BRAALLBDR003115
012020032602AALL34      010AMERICAN AIRDRN          R$  000000000831000000000085700000000008000000000000845500000000080000000000006000000000000000000010000000000000002190000000000018517400000000000000009999123100000010000000000000BRAALLBDR003115
012020031696AALL34F     020AMERICAN AIRDRN          R$  000000000737000000000073700000000007370000000000737000000000073700000000000000000000000000000001000000000000000001000000000000007370000000000000009999123100000010000000000000BRAALLBDR003115
012020031702AALR3       010ALLIAR      ON      NM   R$  000000000120100000000012520000000001166000000000120900000000012250000000001201000000000122502761000000000000718700000000000869199600000000000000009999123100000010000000000000BRAALRACNOR6101
012020031802AALR3       010ALLIAR      ON      NM   R$  000000000114800000000011480000000000935000000000101500000000009990000000000999000000000100002923000000000000542700000000000551044900000000000000009999123100000010000000000000BRAALRACNOR6101
012020031902AALR3       010ALLIAR      ON      NM   R$  000000000096000000000010740000000000821000000000097600000000010570000000001057000000000107003242000000000000601400000000000587294700000000000000009999123100000010000000000000BRAALRACNOR6101
012020032002AALR3       010ALLIAR      ON      NM   R$  000000000108100000000011470000000000981000000000106700000000010760000000001068000000000107603590000000000000680700000000000726348500000000000000009999123100000010000000000000BRAALRACNOR6101
012020032302AALR3       010ALLIAR      ON      NM   R$  000000000104100000000010660000000000907000000000096000000000010100000000000992000000000101603538000000000000601300000000000577282500000000000000009999123100000010000000000000BRAALRACNOR6101
012020032402AALR3       010ALLIAR      ON      NM   R$  000000000110000000000011110000000000960000000000100000000000009600000000000956000000000096604242000000000000895900000000000896786500000000000000009999123100000010000000000000BRAALRACNOR6101
012020032502AALR3       010ALLIAR      ON      NM   R$  000000000096000000000010040000000000952000000000098700000000009750000000000975000000000098003504000000000000921500000000000910338900000000000000009999123100000010000000000000BRAALRACNOR6101
012020032602AALR3       010ALLIAR      ON      NM   R$  000000000098000000000010740000000000955000000000102600000000010650000000001057000000000106505440000000000001236800000000001270057500000000000000009999123100000010000000000000BRAALRACNOR6101
012020031696AALR3F      020ALLIAR      ON      NM   R$  000000000116000000000012500000000001145000000000121900000000012050000000001200000000000120500239000000000000006187000000000007544496000000000000009999123100000010000000000000BRAALRACNOR6101
012020031796AALR3F      020ALLIAR      ON      NM   R$  000000000120500000000012420000000001167000000000120600000000012180000000001204000000000121800197000000000000006155000000000007425035000000000000009999123100000010000000000000BRAALRACNOR6101
012020031896AALR3F      020ALLIAR      ON      NM   R$  000000000116100000000011610000000000938000000000101400000000010200000000001016000000000104700420000000000000007871000000000007985667000000000000009999123100000010000000000000BRAALRACNOR6101
012020031996AALR3F      020ALLIAR      ON      NM   R$  000000000092000000000011000000000000830000000000094500000000011000000000001070000000000110000265000000000000006757000000000006387787000000000000009999123100000010000000000000BRAALRACNOR6101
012020032096AALR3F      020ALLIAR      ON      NM   R$  000000000110900000000011500000000000990000000000106700000000010810000000001057000000000108100266000000000000007709000000000008226683000000000000009999123100000010000000000000BRAALRACNOR6101
012020032396AALR3F      020ALLIAR      ON      NM   R$  000000000103800000000010380000000000900000000000094700000000010000000000000998000000000107000279000000000000007818000000000007404392000000000000009999123100000010000000000000BRAALRACNOR6101
012020032496AALR3F      020ALLIAR      ON      NM   R$  000000000107000000000010700000000000974000000000100700000000009990000000000985000000000099900272000000000000007412000000000007470319000000000000009999123100000010000000000000BRAALRACNOR6101
012020032596AALR3F      020ALLIAR      ON      NM   R$  000000000097000000000010500000000000955000000000098500000000010500000000000986000000000105000321000000000000008699000000000008575397000000000000009999123100000010000000000000BRAALRACNOR6101
012020032696AALR3F      020ALLIAR      ON      NM   R$  000000000100000000000010780000000000961000000000102800000000010700000000001005000000000107000391000000000000011012000000000011325883000000000000009999123100000010000000000000BRAALRACNOR6101
012020031702AAPL34      010APPLE       DRN          R$  000000001190000000000127100000000011900000000001254100000000124290000000012429000000001300000022000000000000018050000000000226372160000000000000009999123100000010000000000000BRAAPLBDR004132
012020031802AAPL34      010APPLE       DRN          R$  000000001240000000000126490000000012230000000001247000000000126490000000012649000000001280000086000000000000057450000000000716451590000000000000009999123100000010000000000000BRAAPLBDR004132
012020031902AAPL34      010APPLE       DRN          R$  000000001273000000000129600000000012468000000001269500000000124680000000012468000000001295000026000000000000008920000000000113247490000000000000009999123100000010000000000000BRAAPLBDR004132
012020032002AAPL34      010APPLE       DRN          R$  000000001246500000000127000000000011430000000001193700000000114300000000011430000000001227001006000000000000068140000000000813425830000000000000009999123100000010000000000000BRAAPLBDR004132
012020032302AAPL34      010APPLE       DRN          R$  000000001152000000000116300000000010860000000001130200000000112250000000010900000000001200000076000000000000032250000000000364518320000000000000009999123100000010000000000000BRAAPLBDR004132
012020032402AAPL34      010APPLE       DRN          R$  000000001202000000000123690000000012020000000001229300000000123460000000011540000000001300000032000000000000022520000000000276845590000000000000009999123100000010000000000000BRAAPLBDR004132
012020032502AAPL34      010APPLE       DRN          R$  000000001276000000000130000000000012500000000001268900000000125000000000012000000000001294000052000000000000018940000000000240333090000000000000009999123100000010000000000000BRAAPLBDR004132
012020032602AAPL34      010APPLE       DRN          R$  000000001250000000000128000000000012461000000001255400000000125800000000012000000000001400000045000000000000012700000000000159439480000000000000009999123100000010000000000000BRAAPLBDR004132
012020031696AAPL34F     020APPLE       DRN          R$  000000001230000000000127210000000012300000000001254300000000125600000000010400000000001479800012000000000000000056000000000000702453000000000000009999123100000010000000000000BRAAPLBDR004132
012020031796AAPL34F     020APPLE       DRN          R$  000000001180000000000125600000000011800000000001247900000000125600000000010303000000001379900005000000000000000018000000000000224622000000000000009999123100000010000000000000BRAAPLBDR004132
012020031896AAPL34F     020APPLE       DRN          R$  000000001030300000000123000000000010303000000001129300000000114010000000010800000000001230000012000000000000000059000000000000666288000000000000009999123100000010000000000000BRAAPLBDR004132
012020031996AAPL34F     020APPLE       DRN          R$  000000001152700000000131000000000011527000000001243900000000116010000000011601000000001300000009000000000000000047000000000000584678000000000000009999123100000010000000000000BRAAPLBDR004132
012020032096AAPL34F     020APPLE       DRN          R$  000000001240000000000124000000000012400000000001240000000000124000000000011002000000001240000007000000000000000017000000000000210800000000000000009999123100000010000000000000BRAAPLBDR004132
012020032396AAPL34F     020APPLE       DRN          R$  000000001100100000000114300000000011001000000001123500000000110010000000011050000000001143000004000000000000000011000000000000123585000000000000009999123100000010000000000000BRAAPLBDR004132
012020032496AAPL34F     020APPLE       DRN          R$  000000001100100000000110010000000011001000000001100100000000110010000000011263000000001379900002000000000000000004000000000000044004000000000000009999123100000010000000000000BRAAPLBDR004132
012020032596AAPL34F     020APPLE       DRN          R$  000000001289000000000128900000000012200000000001237200000000122000000000012718000000001479900002000000000000000004000000000000049490000000000000009999123100000010000000000000BRAAPLBDR004132
012020032696AAPL34F     020APPLE       DRN          R$  000000001271800000000138000000000012718000000001329500000000127180000000012500000000001380000003000000000000000015000000000000199426000000000000009999123100000010000000000000BRAAPLBDR004132
012020031702ABCB4       010ABC BRASIL  PN      N2   R$  000000000134500000000014290000000001303000000000136900000000013490000000001348000000000135505186000000000000877200000000001201632500000000000000009999123100000010000000000000BRABCBACNPR4133
012020031802ABCB4       010ABC BRASIL  PN      N2   R$  000000000128600000000013030000000001091000000000116300000000011650000000001157000000000116607849000000000001483700000000001726815300000000000000009999123100000010000000000000BRABCBACNPR4133
012020031902ABCB4       010ABC BRASIL  PN      N2   R$  000000000111500000000012060000000001070000000000116000000000012050000000001197000000000120506766000000000001275400000000001480167200000000000000009999123100000010000000000000BRABCBACNPR4133
012020032002ABCB4       010ABC BRASIL  PN      N2   R$  000000000128100000000012980000000001166000000000122600000000011750000000001173000000000118706546000000000001422900000000001745525400000000000000009999123100000010000000000000BRABCBACNPR4133
012020032302ABCB4       010ABC BRASIL  PN      N2   R$  000000000117500000000011980000000001090000000000111700000000011030000000001103000000000110402872000000000000644600000000000720380400000000000000009999123100000010000000000000BRABCBACNPR4133
012020032402ABCB4       010ABC BRASIL  PN      N2   R$  000000000115000000000012540000000001150000000000119900000000011530000000001150000000000117604499000000000000793000000000000951120000000000000000009999123100000010000000000000BRABCBACNPR4133
012020032502ABCB4       010ABC BRASIL  PN      N2   R$  000000000117000000000013800000000001165000000000127400000000013500000000001350000000000135203477000000000001016000000000001294998300000000000000009999123100000010000000000000BRABCBACNPR4133
012020032602ABCB4       010ABC BRASIL  PN      N2   R$  000000000136400000000014800000000001364000000000144200000000014160000000001416000000000143405381000000000000914200000000001318618900000000000000009999123100000010000000000000BRABCBACNPR4133
012020031696ABCB4F      020ABC BRASIL  PN      N2   R$  000000000145200000000015300000000001307000000000135900000000013360000000001336000000000134201571000000000000027714000000000037668476000000000000009999123100000010000000000000BRABCBACNPR4133
012020031796ABCB4F      020ABC BRASIL  PN      N2   R$  000000000142800000000014300000000001307000000000136400000000013400000000001340000000000140700583000000000000012067000000000016471114000000000000009999123100000010000000000000BRABCBACNPR4133
012020031896ABCB4F      020ABC BRASIL  PN      N2   R$  000000000130500000000013110000000001092000000000119400000000012110000000001190000000000121101771000000000000029226000000000034897676000000000000009999123100000010000000000000BRABCBACNPR4133
012020031996ABCB4F      020ABC BRASIL  PN      N2   R$  000000000110100000000012030000000001071000000000114400000000011840000000001184000000000120000752000000000000014169000000000016222770000000000000009999123100000010000000000000BRABCBACNPR4133
012020032096ABCB4F      020ABC BRASIL  PN      N2   R$  000000000129800000000013450000000001170000000000123600000000011900000000001185000000000119000815000000000000016758000000000020724636000000000000009999123100000010000000000000BRABCBACNPR4133
012020032396ABCB4F      020ABC BRASIL  PN      N2   R$  000000000118900000000011990000000001091000000000111700000000011000000000001100000000000110500814000000000000014649000000000016365794000000000000009999123100000010000000000000BRABCBACNPR4133
012020032496ABCB4F      020ABC BRASIL  PN      N2   R$  000000000120000000000012520000000001156000000000121300000000011710000000001171000000000117600424000000000000009175000000000011131039000000000000009999123100000010000000000000BRABCBACNPR4133
012020032596ABCB4F      020ABC BRASIL  PN      N2   R$  000000000120000000000013780000000001170000000000127300000000013660000000001366000000000137400624000000000000012551000000000015989964000000000000009999123100000010000000000000BRABCBACNPR4133
012020032696ABCB4F      020ABC BRASIL  PN      N2   R$  000000000135400000000014780000000001354000000000144000000000014410000000001441000000000145700577000000000000011910000000000017162254000000000000009999123100000010000000000000BRABCBACNPR4133
012020031612ABCP11      010FII ABC IMOBCI           R$  000000000920000000000093780000000008510000000000882100000000088060000000008800000000000890000571000000000000010146000000000089499233000000000000009999123100000010000000000000BRABCPCTF000293
012020031712ABCP11      010FII ABC IMOBCI           R$  000000000870000000000092980000000008115000000000831900000000083000000000008300000000000840000917000000000000017927000000000149135759000000000000009999123100000010000000000000BRABCPCTF000293
012020031812ABCP11      010FII ABC IMOBCI           R$  000000000809500000000087080000000007503000000000793700000000075600000000007511000000000756000715000000000000010142000000000080499976000000000000009999123100000010000000000000BRABCPCTF000293
012020031912ABCP11      010FII ABC IMOBCI           R$  000000000746900000000082500000000006501000000000715000000000078000000000007520000000000780000356000000000000005861000000000041910019000000000000009999123100000010000000000000BRABCPCTF000293
012020032012ABCP11      010FII ABC IMOBCI           R$  000000000780000000000084900000000007499000000000798300000000075950000000007507000000000779800345000000000000004688000000000037425277000000000000009999123100000010000000000000BRABCPCTF000293
012020032312ABCP11      010FII ABC IMOBCI           R$  000000000692200000000071000000000006740000000000693300000000070180000000006975000000000701800374000000000000007924000000000054943919000000000000009999123100000010000000000000BRABCPCTF000293
012020032412ABCP11      010FII ABC IMOBCI           R$  000000000701800000000076100000000007018000000000744500000000074500000000007305000000000747100167000000000000001330000000000009901872000000000000009999123100000010000000000000BRABCPCTF000293
012020032512ABCP11      010FII ABC IMOBCI           R$  000000000747100000000079020000000007350000000000773900000000078390000000007830000000000783900280000000000000005126000000000039674789000000000000009999123100000010000000000000BRABCPCTF000293
012020032612ABCP11      010FII ABC IMOBCI           R$  000000000760200000000085000000000007602000000000823500000000083230000000008300000000000839900314000000000000003875000000000031913719000000000000009999123100000010000000000000BRABCPCTF000293
012020031702ABEV3       010AMBEV S/A   ON           R$  000000000110500000000011960000000001105000000000116600000000011690000000001169000000000117089068000000000070142000000000081803425800000000000000009999123100000010000000000000BRABEVACNOR1122
012020031802ABEV3       010AMBEV S/A   ON           R$  000000000107300000000011210000000001055000000000108400000000011190000000001118000000000111968946000000000062802600000000068126223500000000000000009999123100000010000000000000BRABEVACNOR1122
012020031902ABEV3       010AMBEV S/A   ON           R$  000000000108200000000012160000000001036000000000115800000000011700000000001170000000000117578455000000000053157300000000061595317700000000000000009999123100000010000000000000BRABEVACNOR1122
012020032002ABEV3       010AMBEV S/A   ON           R$  000000000119000000000012490000000001176000000000121500000000012050000000001204000000000120672068000000000049887100000000060627988400000000000000009999123100000010000000000000BRABEVACNOR1122
012020032302ABEV3       010AMBEV S/A   ON           R$  000000000122800000000012280000000001118000000000115900000000011510000000001150000000000115159950000000000050158000000000058150986200000000000000009999123100000010000000000000BRABEVACNOR1122
012020032402ABEV3       010AMBEV S/A   ON           R$  000000000121200000000012590000000001129000000000118300000000011290000000001130000000000113452077000000000033699600000000039884979900000000000000009999123100000010000000000000BRABEVACNOR1122
012020032502ABEV3       010AMBEV S/A   ON           R$  000000000113000000000012070000000001106000000000116000000000011650000000001165000000000116657260000000000033700300000000039119852200000000000000009999123100000010000000000000BRABEVACNOR1122
012020032602ABEV3       010AMBEV S/A   ON           R$  000000000119000000000013280000000001189000000000127400000000012800000000001280000000000128382273000000000045899600000000058490157200000000000000009999123100000010000000000000BRABEVACNOR1122
012020031696ABEV3F      020AMBEV S/A   ON           R$  000000000119800000000011980000000001044000000000111100000000011130000000001113000000000111511917000000000000210570000000000234007674000000000000009999123100000010000000000000BRABEVACNOR1122
012020031796ABEV3F      020AMBEV S/A   ON           R$  000000000113500000000011950000000001126000000000116200000000011570000000001156000000000115704557000000000000096902000000000112686885000000000000009999123100000010000000000000BRABEVACNOR1122
012020031896ABEV3F      020AMBEV S/A   ON           R$  000000000116600000000011690000000001056000000000108000000000011200000000001120000000000112107166000000000000116871000000000126259784000000000000009999123100000010000000000000BRABEVACNOR1122
012020031996ABEV3F      020AMBEV S/A   ON           R$  000000000107300000000012150000000001033000000000114100000000011780000000001178000000000118005015000000000000106086000000000121095739000000000000009999123100000010000000000000BRABEVACNOR1122
012020032096ABEV3F      020AMBEV S/A   ON           R$  000000000120000000000012490000000001179000000000121700000000011920000000001191000000000119204836000000000000100532000000000122424377000000000000009999123100000010000000000000BRABEVACNOR1122
012020032396ABEV3F      020AMBEV S/A   ON           R$  000000000121100000000012150000000001119000000000116000000000011530000000001152000000000115304095000000000000089098000000000103426732000000000000009999123100000010000000000000BRABEVACNOR1122
012020032496ABEV3F      020AMBEV S/A   ON           R$  000000000120000000000012590000000001133000000000118100000000011440000000001133000000000113405317000000000000094620000000000111775607000000000000009999123100000010000000000000BRABEVACNOR1122
012020032596ABEV3F      020AMBEV S/A   ON           R$  000000000115200000000012060000000001107000000000116300000000011800000000001180000000000118506022000000000000105593000000000122825893000000000000009999123100000010000000000000BRABEVACNOR1122
012020032696ABEV3F      020AMBEV S/A   ON           R$  000000000118900000000013250000000001188000000000126700000000012900000000001289000000000129005355000000000000101021000000000128093014000000000000009999123100000010000000000000BRABEVACNOR1122
012020031802ABTT34      010ABBOTT      DRN          R$  000000001015200000000101850000000010152000000001015200000000101850000000008700000000000000000003000000000000007110000000000072184020000000000000009999123100000010000000000000BRABTTBDR007133
012020031902ABTT34      010ABBOTT      DRN          R$  000000000972000000000097200000000009720000000000972000000000097200000000000000000000000000000001000000000000009900000000000096228000000000000000009999123100000010000000000000BRABTTBDR007133
012020032402ABTT34      010ABBOTT      DRN          R$  000000000863100000000086310000000008631000000000863100000000086310000000000000000000000000000001000000000000008100000000000069911100000000000000009999123100000010000000000000BRABTTBDR007133
012020031702ABUD34      010AB INBEV    DRN          R$  000000001846000000000184600000000018460000000001846000000000184600000000018460000000000000000001000000000000000100000000000001846000000000000000009999123100000010000000000000BRABUDBDR009101
012020031802ABUD34      010AB INBEV    DRN          R$  000000001740000000000174220000000017400000000001741100000000174220000000000000000000000000000002000000000000000200000000000003482200000000000000009999123100000010000000000000BRABUDBDR009101
012020031902ABUD34      010AB INBEV    DRN          R$  000000001795000000000193500000000017950000000001903800000000190000000000000000000000000000000005000000000000000690000000000013136500000000000000009999123100000010000000000000BRABUDBDR009101
012020032302ABUD34      010AB INBEV    DRN          R$  000000002045000000000204500000000020450000000002045000000000204500000000019500000000000000000001000000000000000250000000000005112500000000000000009999123100000010000000000000BRABUDBDR009101
012020032402ABUD34      010AB INBEV    DRN          R$  000000002203500000000223200000000021990000000002201900000000219900000000019000000000000000000004000000000000003180000000000070022000000000000000009999123100000010000000000000BRABUDBDR009101
012020032502ABUD34      010AB INBEV    DRN          R$  000000002245400000000224540000000022454000000002245400000000224540000000000000000000000000000001000000000000000200000000000004490800000000000000009999123100000010000000000000BRABUDBDR009101
012020032602ABUD34      010AB INBEV    DRN          R$  000000002286000000000228600000000022860000000002286000000000228600000000022500000000000000000001000000000000000010000000000000228600000000000000009999123100000010000000000000BRABUDBDR009101
012020032496ABUD34F     020AB INBEV    DRN          R$  000000002200000000000220000000000022000000000002200000000000220000000000000000000000000000000001000000000000000003000000000000066000000000000000009999123100000010000000000000BRABUDBDR009101
012020031802ACNB34      010ACCENTURE   DRN          R$  000000007847100000000784710000000078471000000007847100000000784710000000000000000000000000000001000000000000000300000000000023541300000000000000009999123100000010000000000000BRACNBBDR006110
012020031902ACNB34      010ACCENTURE   DRN          R$  000000008314500000000831450000000083145000000008314500000000831450000000000000000000000000000001000000000000000300000000000024943500000000000000009999123100000010000000000000BRACNBBDR006110
012020032402ACNB34      010ACCENTURE   DRN          R$  000000007860100000000786010000000078601000000007860100000000786010000000000000000000000000000001000000000000000700000000000055020700000000000000009999123100000010000000000000BRACNBBDR006110
012020031702ADBE34      010ADOBE INC   DRN          R$  000000003040000000000304000000000030400000000003040000000000304000000000000000000000000000000001000000000000004000000000000121600000000000000000009999123100000010000000000000BRADBEBDR003100
012020031802ADBE34      010ADOBE INC   DRN          R$  000000002789900000000278990000000027899000000002789900000000278990000000000000000000000000000001000000000000000200000000000005579800000000000000009999123100000010000000000000BRADBEBDR003100
012020031902ADBE34      010ADOBE INC   DRN          R$  000000003067600000000306760000000030676000000003067600000000306760000000000000000000000000000001000000000000002500000000000076690000000000000000009999123100000010000000000000BRADBEBDR003100
012020032302ADBE34      010ADOBE INC   DRN          R$  000000003080900000000308090000000030809000000003080900000000308090000000000000000000000000000002000000000000006100000000000187934900000000000000009999123100000010000000000000BRADBEBDR003100
012020032402ADBE34      010ADOBE INC   DRN          R$  000000003158900000000315890000000031589000000003158900000000315890000000000000000000000000000001000000000000000800000000000025271200000000000000009999123100000010000000000000BRADBEBDR003100
012020032502ADBE34      010ADOBE INC   DRN          R$  000000003105000000000310500000000031050000000003105000000000310500000000000000000000000000000001000000000000000010000000000000310500000000000000009999123100000010000000000000BRADBEBDR003100
012020032602ADBE34      010ADOBE INC   DRN          R$  000000003111000000000311100000000031078000000003109900000000310780000000000000000000000000000002000000000000000440000000000013683920000000000000009999123100000010000000000000BRADBEBDR003100
012020031702ADHM3       010ADVANCED-DH ON           R$  000000000015200000000001600000000000150000000000015100000000001500000000000150000000000015200023000000000000011500000000000001740500000000000000009999123100000010000000000000BRADHMACNOR9102
012020031802ADHM3       010ADVANCED-DH ON           R$  000000000014500000000001450000000000115000000000012800000000001330000000000106000000000013300050000000000000030700000000000003935700000000000000009999123100000010000000000000BRADHMACNOR9102
012020031902ADHM3       010ADVANCED-DH ON           R$  000000000013300000000001330000000000102000000000011400000000001130000000000113000000000011800056000000000000034800000000000003980700000000000000009999123100000010000000000000BRADHMACNOR9102
012020032002ADHM3       010ADVANCED-DH ON           R$  000000000012400000000001250000000000118000000000012100000000001180000000000118000000000012400051000000000000020700000000000002505300000000000000009999123100000010000000000000BRADHMACNOR9102
012020032302ADHM3       010ADVANCED-DH ON           R$  000000000012100000000001210000000000110000000000011300000000001100000000000110000000000012000022000000000000008500000000000000962600000000000000009999123100000010000000000000BRADHMACNOR9102
012020032402ADHM3       010ADVANCED-DH ON           R$  000000000012000000000001280000000000111000000000011800000000001190000000000116000000000012000037000000000000013700000000000001627100000000000000009999123100000010000000000000BRADHMACNOR9102
012020032502ADHM3       010ADVANCED-DH ON           R$  000000000011600000000001300000000000116000000000012300000000001280000000000126000000000013000059000000000000023200000000000002872200000000000000009999123100000010000000000000BRADHMACNOR9102
012020032602ADHM3       010ADVANCED-DH ON           R$  000000000012400000000001330000000000123000000000012800000000001260000000000126000000000012700074000000000000032300000000000004154800000000000000009999123100000010000000000000BRADHMACNOR9102
012020031696ADHM3F      020ADVANCED-DH ON           R$  000000000017700000000001870000000000160000000000016700000000001700000000000160000000000017000044000000000000000678000000000000113538000000000000009999123100000010000000000000BRADHMACNOR9102
012020031796ADHM3F      020ADVANCED-DH ON           R$  000000000015500000000001610000000000150000000000015400000000001590000000000150000000000015900023000000000000000329000000000000050943000000000000009999123100000010000000000000BRADHMACNOR9102
012020031896ADHM3F      020ADVANCED-DH ON           R$  000000000014900000000001490000000000125000000000013800000000001360000000000136000000000014500032000000000000000585000000000000080964000000000000009999123100000010000000000000BRADHMACNOR9102
012020031996ADHM3F      020ADVANCED-DH ON           R$  000000000011000000000001320000000000105000000000011600000000001320000000000118000000000013200031000000000000000422000000000000048998000000000000009999123100000010000000000000BRADHMACNOR9102
012020032096ADHM3F      020ADVANCED-DH ON           R$  000000000013200000000001400000000000118000000000012500000000001230000000000115000000000012300034000000000000000831000000000000104678000000000000009999123100000010000000000000BRADHMACNOR9102
012020032396ADHM3F      020ADVANCED-DH ON           R$  000000000012300000000001230000000000109000000000011600000000001190000000000113000000000011900021000000000000000310000000000000035963000000000000009999123100000010000000000000BRADHMACNOR9102
012020032496ADHM3F      020ADVANCED-DH ON           R$  000000000011900000000001280000000000113000000000012000000000001250000000000111000000000012500028000000000000000483000000000000058415000000000000009999123100000010000000000000BRADHMACNOR9102
012020032596ADHM3F      020ADVANCED-DH ON           R$  000000000010500000000001300000000000105000000000012200000000001300000000000126000000000013000043000000000000000528000000000000064894000000000000009999123100000010000000000000BRADHMACNOR9102
012020032696ADHM3F      020ADVANCED-DH ON           R$  000000000013500000000001350000000000122000000000013100000000001290000000000127000000000012900043000000000000000616000000000000081167000000000000009999123100000010000000000000BRADHMACNOR9102
012020031802ADPR34      010AUTOMATIC DTDRN ED       R$  000000002998600000000299860000000029986000000002998600000000299860000000000000000000000000000001000000000000000100000000000002998600000000000000009999123100000010000000000000BRADPRBDR005103
012020031902ADPR34      010AUTOMATIC DTDRN ED       R$  000000003057000000000305700000000030570000000003057000000000305700000000000000000000000000000001000000000000000400000000000012228000000000000000009999123100000010000000000000BRADPRBDR005103
012020032402ADPR34      010AUTOMATIC DTDRN          R$  000000003012000000000301200000000030120000000003012000000000301200000000000000000000000000000001000000000000000100000000000003012000000000000000009999123100000010000000000000BRADPRBDR005103
012020032502ADPR34      010AUTOMATIC DTDRN          R$  000000003070000000000307000000000030700000000003070000000000307000000000000000000000000000000001000000000000000010000000000000307000000000000000009999123100000010000000000000BRADPRBDR005103
012020031702AFLT3       010AFLUENTE T  ON           R$  000000000080000000000008550000000000728000000000078900000000007280000000000728000000000078800019000000000000002700000000000002132700000000000000009999123100000010000000000000BRAFLTACNOR1114
012020031802AFLT3       010AFLUENTE T  ON           R$  000000000071500000000007150000000000600000000000064300000000006500000000000501000000000065000010000000000000001300000000000000836500000000000000009999123100000010000000000000BRAFLTACNOR1114
012020031902AFLT3       010AFLUENTE T  ON           R$  000000000059000000000007000000000000520000000000057900000000007000000000000600000000000070000028000000000000005800000000000003361700000000000000009999123100000010000000000000BRAFLTACNOR1114
012020032002AFLT3       010AFLUENTE T  ON           R$  000000000070100000000007010000000000573000000000062400000000005730000000000551000000000060300036000000000000006100000000000003808300000000000000009999123100000010000000000000BRAFLTACNOR1114
012020032302AFLT3       010AFLUENTE T  ON           R$  000000000053400000000005690000000000530000000000054700000000005690000000000540000000000056900019000000000000003600000000000001972000000000000000009999123100000010000000000000BRAFLTACNOR1114
012020032402AFLT3       010AFLUENTE T  ON           R$  000000000058100000000006580000000000580000000000059900000000005930000000000593000000000061000017000000000000002900000000000001739000000000000000009999123100000010000000000000BRAFLTACNOR1114
012020032502AFLT3       010AFLUENTE T  ON           R$  000000000064900000000006500000000000630000000000064200000000006300000000000630000000000064800006000000000000000800000000000000513600000000000000009999123100000010000000000000BRAFLTACNOR1114
012020032602AFLT3       010AFLUENTE T  ON           R$  000000000060000000000006850000000000590000000000063300000000006850000000000625000000000068500012000000000000001700000000000001076700000000000000009999123100000010000000000000BRAFLTACNOR1114
012020031696AFLT3F      020AFLUENTE T  ON           R$  000000000093500000000009350000000000860000000000087500000000008600000000000790000000000085300008000000000000000065000000000000056886000000000000009999123100000010000000000000BRAFLTACNOR1114
012020031796AFLT3F      020AFLUENTE T  ON           R$  000000000075900000000008200000000000759000000000079700000000008000000000000770000000000080000024000000000000000182000000000000145088000000000000009999123100000010000000000000BRAFLTACNOR1114
012020031896AFLT3F      020AFLUENTE T  ON           R$  000000000075000000000007500000000000600000000000065200000000006000000000000600000000000064700033000000000000000359000000000000234277000000000000009999123100000010000000000000BRAFLTACNOR1114
012020031996AFLT3F      020AFLUENTE T  ON           R$  000000000060000000000006500000000000543000000000059100000000006500000000000616000000000065600020000000000000000207000000000000122512000000000000009999123100000010000000000000BRAFLTACNOR1114
012020032096AFLT3F      020AFLUENTE T  ON           R$  000000000065600000000006990000000000581000000000064800000000005810000000000582000000000060000049000000000000000753000000000000488297000000000000009999123100000010000000000000BRAFLTACNOR1114
012020032396AFLT3F      020AFLUENTE T  ON           R$  000000000061900000000006190000000000545000000000056700000000005900000000000546000000000059000016000000000000000117000000000000066400000000000000009999123100000010000000000000BRAFLTACNOR1114
012020032496AFLT3F      020AFLUENTE T  ON           R$  000000000060700000000006200000000000589000000000060700000000006100000000000600000000000061000020000000000000000220000000000000133697000000000000009999123100000010000000000000BRAFLTACNOR1114
012020032596AFLT3F      020AFLUENTE T  ON           R$  000000000060900000000006400000000000609000000000062700000000006400000000000609000000000064100007000000000000000056000000000000035158000000000000009999123100000010000000000000BRAFLTACNOR1114
012020032696AFLT3F      020AFLUENTE T  ON           R$  000000000064200000000006690000000000604000000000064400000000006690000000000620000000000065000030000000000000000232000000000000149619000000000000009999123100000010000000000000BRAFLTACNOR1114
012020031702AGRO3       010BRASILAGRO  ON      NM   R$  000000000153400000000015350000000001436000000000145900000000014360000000001435000000000143600831000000000000284400000000000415055900000000000000009999123100000010000000000000BRAGROACNOR7109
012020031802AGRO3       010BRASILAGRO  ON      NM   R$  000000000135100000000013890000000001300000000000134500000000013890000000001338000000000138900747000000000000299100000000000402290900000000000000009999123100000010000000000000BRAGROACNOR7109
012020031902AGRO3       010BRASILAGRO  ON      NM   R$  000000000136100000000014110000000001300000000000135700000000014070000000001360000000000140700432000000000000143700000000000195065500000000000000009999123100000010000000000000BRAGROACNOR7109
012020032002AGRO3       010BRASILAGRO  ON      NM   R$  000000000144100000000014850000000001327000000000140800000000013950000000001395000000000144500406000000000000122500000000000172513100000000000000009999123100000010000000000000BRAGROACNOR7109
012020032302AGRO3       010BRASILAGRO  ON      NM   R$  000000000137100000000013900000000001300000000000134000000000013800000000001380000000000139500337000000000000107300000000000143889000000000000000009999123100000010000000000000BRAGROACNOR7109
012020032402AGRO3       010BRASILAGRO  ON      NM   R$  000000000144200000000015170000000001416000000000148100000000015170000000001462000000000152000352000000000000141900000000000210219600000000000000009999123100000010000000000000BRAGROACNOR7109
012020032502AGRO3       010BRASILAGRO  ON      NM   R$  000000000154000000000016350000000001513000000000157400000000016350000000001554000000000163500651000000000000135500000000000213363200000000000000009999123100000010000000000000BRAGROACNOR7109
012020032602AGRO3       010BRASILAGRO  ON      NM   R$  000000000163700000000017390000000001600000000000167900000000017390000000001677000000000173900436000000000000103200000000000173357800000000000000009999123100000010000000000000BRAGROACNOR7109
012020031696AGRO3F      020BRASILAGRO  ON      NM   R$  000000000150300000000015030000000001400000000000147100000000014640000000001465000000000148500138000000000000001744000000000002565477000000000000009999123100000010000000000000BRAGROACNOR7109
012020031796AGRO3F      020BRASILAGRO  ON      NM   R$  000000000150500000000015350000000001440000000000147200000000014500000000001453000000000155800169000000000000003784000000000005571439000000000000009999123100000010000000000000BRAGROACNOR7109
012020031896AGRO3F      020BRASILAGRO  ON      NM   R$  000000000142300000000014230000000001309000000000134600000000014200000000001348000000000142100155000000000000003244000000000004366684000000000000009999123100000010000000000000BRAGROACNOR7109
012020031996AGRO3F      020BRASILAGRO  ON      NM   R$  000000000142000000000014200000000001317000000000135400000000013510000000001346000000000137600090000000000000002174000000000002944039000000000000009999123100000010000000000000BRAGROACNOR7109
012020032096AGRO3F      020BRASILAGRO  ON      NM   R$  000000000142000000000014860000000001340000000000141200000000013900000000001310000000000140800117000000000000002458000000000003471227000000000000009999123100000010000000000000BRAGROACNOR7109
012020032396AGRO3F      020BRASILAGRO  ON      NM   R$  000000000139800000000013980000000001310000000000133100000000013260000000001315000000000135000081000000000000001804000000000002402833000000000000009999123100000010000000000000BRAGROACNOR7109
012020032496AGRO3F      020BRASILAGRO  ON      NM   R$  000000000145000000000014850000000001430000000000146900000000014720000000001455000000000147400084000000000000001556000000000002286843000000000000009999123100000010000000000000BRAGROACNOR7109
012020032596AGRO3F      020BRASILAGRO  ON      NM   R$  000000000148500000000015970000000001485000000000155500000000015710000000001570000000000160000188000000000000004234000000000006586077000000000000009999123100000010000000000000BRAGROACNOR7109
012020032696AGRO3F      020BRASILAGRO  ON      NM   R$  000000000161000000000017300000000001606000000000167600000000016780000000001669000000000171600155000000000000002337000000000003918333000000000000009999123100000010000000000000BRAGROACNOR7109
012020032602AHEB5       010SPTURIS     PNA          R$  000000000200200000000020020000000002002000000000200200000000020020000000002002000000000250000001000000000000000100000000000000200200000000000000009999123100000010000000000000BRAHEBACNPA3106
012020031802AIGB34      010AIG GROUP   DRN ED       R$  000000000930700000000093070000000009307000000000930700000000093070000000000000000000000000000001000000000000000700000000000006514900000000000000009999123100000010000000000000BRAIGBBDR007114
012020031902AIGB34      010AIG GROUP   DRN ED       R$  000000001055200000000106180000000010552000000001061000000000106180000000000000000000000000000002000000000000002700000000000028648800000000000000009999123100000010000000000000BRAIGBBDR007114
012020032302AIGB34      010AIG GROUP   DRN ED       R$  000000000965300000000096530000000009639000000000964500000000096390000000000000000000000000000011000000000000000900000000000008680800000000000000009999123100000010000000000000BRAIGBBDR007114
012020032402AIGB34      010AIG GROUP   DRN ED       R$  000000001134000000000113400000000011340000000001134000000000113400000000000000000000000000000001000000000000000800000000000009072000000000000000009999123100000010000000000000BRAIGBBDR007114
012020032502AIGB34      010AIG GROUP   DRN          R$  000000001301600000000130160000000013016000000001301600000000130160000000013016000000000000000001000000000000000100000000000001301600000000000000009999123100000010000000000000BRAIGBBDR007114
012020031612ALMI11      010FII TORRE ALCI           R$  000000015512700000001650000000000155127000000015930400000001597000000000159700000000017000000035000000000000000112000000000017842135000000000000009999123100000010000000000000BRALMICTF003250
012020031712ALMI11      010FII TORRE ALCI           R$  000000016025100000001699000000000155000000000016241900000001550000000000150100000000015899900045000000000000000173000000000028098537000000000000009999123100000010000000000000BRALMICTF003250
012020031812ALMI11      010FII TORRE ALCI           R$  000000015482000000001550000000000130011000000014949000000001300110000000130000000000014000000047000000000000000157000000000023469955000000000000009999123100000010000000000000BRALMICTF003250
012020031912ALMI11      010FII TORRE ALCI           R$  000000013500000000001350000000000119000000000012275400000001190000000000119000000000013340000054000000000000000154000000000018904255000000000000009999123100000010000000000000BRALMICTF003250
012020032012ALMI11      010FII TORRE ALCI           R$  000000012200100000001350000000000122001000000013083800000001350000000000135000000000013600000083000000000000000128000000000016747326000000000000009999123100000010000000000000BRALMICTF003250
012020032312ALMI11      010FII TORRE ALCI           R$  000000013500000000001350000000000120001000000012456400000001311000000000120100000000012500000016000000000000000032000000000003986049000000000000009999123100000010000000000000BRALMICTF003250
012020032412ALMI11      010FII TORRE ALCI           R$  000000013000000000001335000000000119103000000012512900000001249950000000119500000000012499600062000000000000000117000000000014640164000000000000009999123100000010000000000000BRALMICTF003250
012020032512ALMI11      010FII TORRE ALCI           R$  000000012999900000001350000000000126100000000013201400000001300000000000130000000000013400000029000000000000000086000000000011353272000000000000009999123100000010000000000000BRALMICTF003250
012020032612ALMI11      010FII TORRE ALCI           R$  000000012920000000001400000000000129200000000013833800000001340000000000134000000000013799900035000000000000000166000000000022964111000000000000009999123100000010000000000000BRALMICTF003250
012020031702ALPA3       010ALPARGATAS  ON      N1   R$  000000000195000000000019510000000001847000000000190500000000018500000000001849000000000185000028000000000000011900000000000022680900000000000000009999123100000010000000000000BRALPAACNOR0229
012020031802ALPA3       010ALPARGATAS  ON      N1   R$  000000000180400000000018040000000001370000000000157100000000014510000000001451000000000147400034000000000000006000000000000009428500000000000000009999123100000010000000000000BRALPAACNOR0229
012020031902ALPA3       010ALPARGATAS  ON      N1   R$  000000000133600000000017500000000001336000000000169500000000017500000000001750000000000192700011000000000000002800000000000004747600000000000000009999123100000010000000000000BRALPAACNOR0229
012020032002ALPA3       010ALPARGATAS  ON      N1   R$  000000000200000000000020020000000001954000000000199500000000019540000000001751000000000195500011000000000000002400000000000004789900000000000000009999123100000010000000000000BRALPAACNOR0229
012020032302ALPA3       010ALPARGATAS  ON      N1   R$  000000000195400000000019540000000001892000000000192800000000018920000000001400000000000189200007000000000000000800000000000001543000000000000000009999123100000010000000000000BRALPAACNOR0229
012020032402ALPA3       010ALPARGATAS  ON      N1   R$  000000000193000000000020000000000001930000000000197300000000019710000000001459000000000207900014000000000000002700000000000005328700000000000000009999123100000010000000000000BRALPAACNOR0229
012020032502ALPA3       010ALPARGATAS  ON      N1   R$  000000000205000000000021980000000002050000000000211400000000021340000000002040000000000217100007000000000000000700000000000001480100000000000000009999123100000010000000000000BRALPAACNOR0229
012020032602ALPA3       010ALPARGATAS  ON      N1   R$  000000000204100000000021700000000002040000000000212300000000021000000000002008000000000210000029000000000000012400000000000026329300000000000000009999123100000010000000000000BRALPAACNOR0229
012020031696ALPA3F      020ALPARGATAS  ON      N1   R$  000000000185300000000021970000000001853000000000203800000000019500000000001900000000000199500023000000000000000228000000000000464805000000000000009999123100000010000000000000BRALPAACNOR0229
012020031796ALPA3F      020ALPARGATAS  ON      N1   R$  000000000210000000000021000000000001850000000000193900000000019000000000001860000000000188000049000000000000000455000000000000882622000000000000009999123100000010000000000000BRALPAACNOR0229
012020031896ALPA3F      020ALPARGATAS  ON      N1   R$  000000000185000000000019120000000001400000000000162700000000016690000000001414000000000166900057000000000000000603000000000000981238000000000000009999123100000010000000000000BRALPAACNOR0229
012020031996ALPA3F      020ALPARGATAS  ON      N1   R$  000000000166800000000019390000000001407000000000165700000000019390000000001750000000000193900032000000000000000322000000000000533792000000000000009999123100000010000000000000BRALPAACNOR0229
012020032096ALPA3F      020ALPARGATAS  ON      N1   R$  000000000175000000000020750000000001750000000000199900000000019300000000001930000000000199000029000000000000000425000000000000849902000000000000009999123100000010000000000000BRALPAACNOR0229
012020032396ALPA3F      020ALPARGATAS  ON      N1   R$  000000000193000000000019990000000001900000000000192700000000019540000000001900000000000195400014000000000000000091000000000000175410000000000000009999123100000010000000000000BRALPAACNOR0229
012020032496ALPA3F      020ALPARGATAS  ON      N1   R$  000000000199900000000019990000000001985000000000199500000000019980000000001745000000000199800010000000000000000109000000000000217513000000000000009999123100000010000000000000BRALPAACNOR0229
012020032596ALPA3F      020ALPARGATAS  ON      N1   R$  000000000199900000000021500000000001999000000000208200000000020010000000002001000000000209500026000000000000000274000000000000570612000000000000009999123100000010000000000000BRALPAACNOR0229
012020032696ALPA3F      020ALPARGATAS  ON      N1   R$  000000000216100000000022490000000002051000000000213900000000022490000000002055000000000224900037000000000000000566000000000001211196000000000000009999123100000010000000000000BRALPAACNOR0229
012020031702ALPA4       010ALPARGATAS  PN      N1   R$  000000000239500000000024250000000002191000000000228200000000022240000000002224000000000223011947000000000002330700000000005319530500000000000000009999123100000010000000000000BRALPAACNPR7229
012020031802ALPA4       010ALPARGATAS  PN      N1   R$  000000000202100000000021230000000001576000000000181800000000017600000000001758000000000176011637000000000010582700000000019247595600000000000000009999123100000010000000000000BRALPAACNPR7229
012020031902ALPA4       010ALPARGATAS  PN      N1   R$  000000000167100000000022980000000001671000000000199800000000022690000000002253000000000227312939000000000004500900000000008997260400000000000000009999123100000010000000000000BRALPAACNPR7229
012020032002ALPA4       010ALPARGATAS  PN      N1   R$  000000000231300000000025620000000002160000000000228900000000022710000000002256000000000227521131000000000005168300000000011831884300000000000000009999123100000010000000000000BRALPAACNPR7229
012020032302ALPA4       010ALPARGATAS  PN      N1   R$  000000000215900000000023280000000002050000000000222800000000023280000000002309000000000232818140000000000003632400000000008093550900000000000000009999123100000010000000000000BRALPAACNPR7229
012020032402ALPA4       010ALPARGATAS  PN      N1   R$  000000000244000000000026000000000002285000000000246100000000023770000000002377000000000237911326000000000002941600000000007241298700000000000000009999123100000010000000000000BRALPAACNPR7229
012020032502ALPA4       010ALPARGATAS  PN      N1   R$  000000000237700000000026550000000002325000000000255000000000025420000000002540000000000254209960000000000001792700000000004572632300000000000000009999123100000010000000000000BRALPAACNPR7229
012020032602ALPA4       010ALPARGATAS  PN      N1   R$  000000000249700000000026490000000002497000000000261000000000026300000000002617000000000263010172000000000002937300000000007667400900000000000000009999123100000010000000000000BRALPAACNPR7229
012020031696ALPA4F      020ALPARGATAS  PN      N1   R$  000000000236100000000025180000000002272000000000239000000000022900000000002290000000000235800216000000000000003384000000000008089741000000000000009999123100000010000000000000BRALPAACNPR7229
012020031796ALPA4F      020ALPARGATAS  PN      N1   R$  000000000231500000000024200000000002198000000000229500000000022190000000002211000000000234500270000000000000010634000000000024415252000000000000009999123100000010000000000000BRALPAACNPR7229
012020031896ALPA4F      020ALPARGATAS  PN      N1   R$  000000000216800000000021680000000001588000000000177900000000016320000000001632000000000180000420000000000000012818000000000022812395000000000000009999123100000010000000000000BRALPAACNPR7229
012020031996ALPA4F      020ALPARGATAS  PN      N1   R$  000000000172800000000022870000000001704000000000200000000000022090000000002209000000000222200412000000000000018329000000000036667131000000000000009999123100000010000000000000BRALPAACNPR7229
012020032096ALPA4F      020ALPARGATAS  PN      N1   R$  000000000229200000000025460000000002165000000000233500000000024350000000002100000000000243500243000000000000004935000000000011524871000000000000009999123100000010000000000000BRALPAACNPR7229
012020032396ALPA4F      020ALPARGATAS  PN      N1   R$  000000000220500000000023000000000002081000000000221100000000022530000000002253000000000248000245000000000000012860000000000028439913000000000000009999123100000010000000000000BRALPAACNPR7229
012020032496ALPA4F      020ALPARGATAS  PN      N1   R$  000000000235200000000026000000000002260000000000250900000000022600000000002260000000000235000229000000000000007254000000000018206077000000000000009999123100000010000000000000BRALPAACNPR7229
012020032596ALPA4F      020ALPARGATAS  PN      N1   R$  000000000249900000000026490000000002297000000000252500000000024980000000002498000000000261500278000000000000009157000000000023128247000000000000009999123100000010000000000000BRALPAACNPR7229
012020032696ALPA4F      020ALPARGATAS  PN      N1   R$  000000000258200000000026370000000002540000000000260200000000025400000000002540000000000263000219000000000000006736000000000017531917000000000000009999123100000010000000000000BRALPAACNPR7229
012020031702ALSO3       010ALIANSCSONAEON      NM   R$  000000000265000000000028700000000002410000000000263800000000027640000000002744000000000276417160000000000003606200000000009514244500000000000000009999123100000010000000000000BRALSOACNOR5100
012020031802ALSO3       010ALIANSCSONAEON      NM   R$  000000000255000000000025500000000001932000000000219800000000025000000000002500000000000251013785000000000003833400000000008429337300000000000000009999123100000010000000000000BRALSOACNOR5100
012020031902ALSO3       010ALIANSCSONAEON      NM   R$  000000000239900000000029950000000001943000000000248000000000029950000000002995000000000313118914000000000006222800000000015434477800000000000000009999123100000010000000000000BRALSOACNOR5100
012020032002ALSO3       010ALIANSCSONAEON      NM   R$  000000000302000000000030820000000002497000000000267200000000024970000000002480000000000249718678000000000004910600000000013121884900000000000000009999123100000010000000000000BRALSOACNOR5100
012020032302ALSO3       010ALIANSCSONAEON      NM   R$  000000000249600000000025750000000002093000000000219800000000021920000000002192000000000220210518000000000002269200000000004988271000000000000000009999123100000010000000000000BRALSOACNOR5100
012020032402ALSO3       010ALIANSCSONAEON      NM   R$  000000000232000000000027760000000002284000000000252900000000026940000000002675000000000269412630000000000004062600000000010275501400000000000000009999123100000010000000000000BRALSOACNOR5100
012020032502ALSO3       010ALIANSCSONAEON      NM   R$  000000000273900000000030950000000002602000000000291300000000030930000000003071000000000313314731000000000003689100000000010747631900000000000000009999123100000010000000000000BRALSOACNOR5100
012020032602ALSO3       010ALIANSCSONAEON      NM   R$  000000000300000000000034160000000003000000000000326500000000032500000000003250000000000326211972000000000002851800000000009313179000000000000000009999123100000010000000000000BRALSOACNOR5100
012020031696ALSO3F      020ALIANSCSONAEON      NM   R$  000000000299900000000029990000000002540000000000265900000000026000000000002600000000000285000277000000000000009213000000000024503088000000000000009999123100000010000000000000BRALSOACNOR5100
012020031796ALSO3F      020ALIANSCSONAEON      NM   R$  000000000260000000000028000000000002432000000000264000000000026400000000002640000000000265500301000000000000014195000000000037484700000000000000009999123100000010000000000000BRALSOACNOR5100
012020031896ALSO3F      020ALIANSCSONAEON      NM   R$  000000000240000000000026000000000001934000000000213900000000020640000000002064000000000237100248000000000000009086000000000019438214000000000000009999123100000010000000000000BRALSOACNOR5100
012020031996ALSO3F      020ALIANSCSONAEON      NM   R$  000000000215000000000030000000000001945000000000240800000000026820000000002682000000000292800455000000000000025414000000000061219179000000000000009999123100000010000000000000BRALSOACNOR5100
012020032096ALSO3F      020ALIANSCSONAEON      NM   R$  000000000290100000000030850000000002450000000000273600000000024500000000002450000000000254800422000000000000013269000000000036317209000000000000009999123100000010000000000000BRALSOACNOR5100
012020032396ALSO3F      020ALIANSCSONAEON      NM   R$  000000000260000000000026000000000002097000000000219400000000022300000000002145000000000223100219000000000000008641000000000018959618000000000000009999123100000010000000000000BRALSOACNOR5100
012020032496ALSO3F      020ALIANSCSONAEON      NM   R$  000000000230200000000027450000000002290000000000250600000000025510000000002551000000000263400204000000000000006872000000000017226054000000000000009999123100000010000000000000BRALSOACNOR5100
012020032596ALSO3F      020ALIANSCSONAEON      NM   R$  000000000254100000000030910000000002541000000000288800000000029950000000002995000000000300000226000000000000009693000000000028002394000000000000009999123100000010000000000000BRALSOACNOR5100
012020032696ALSO3F      020ALIANSCSONAEON      NM   R$  000000000280700000000034000000000002807000000000320000000000032750000000003205000000000327500194000000000000004146000000000013268520000000000000009999123100000010000000000000BRALSOACNOR5100
012020031702ALUP3       010ALUPAR      ON      N2   R$  000000000104500000000010800000000000972000000000104700000000010670000000001020000000000106700108000000000000117400000000000123003400000000000000009999123100000010000000000000BRALUPACNOR8110
012020031802ALUP3       010ALUPAR      ON      N2   R$  000000000101600000000010470000000000850000000000085500000000009970000000000906000000000100000548000000000000429000000000000367059900000000000000009999123100000010000000000000BRALUPACNOR8110
012020031902ALUP3       010ALUPAR      ON      N2   R$  000000000092000000000010290000000000885000000000096400000000010290000000000960000000000102900053000000000000015000000000000014474900000000000000009999123100000010000000000000BRALUPACNOR8110
012020032002ALUP3       010ALUPAR      ON      N2   R$  000000000103100000000010800000000000995000000000104400000000010800000000001080000000000109900152000000000000031200000000000032578600000000000000009999123100000010000000000000BRALUPACNOR8110
012020032302ALUP3       010ALUPAR      ON      N2   R$  000000000105000000000010630000000000950000000000100200000000010630000000001063000000000108000055000000000000012200000000000012236300000000000000009999123100000010000000000000BRALUPACNOR8110
012020032402ALUP3       010ALUPAR      ON      N2   R$  000000000106600000000010690000000001001000000000104000000000010600000000001060000000000108600098000000000000025000000000000026021300000000000000009999123100000010000000000000BRALUPACNOR8110
012020032502ALUP3       010ALUPAR      ON      N2   R$  000000000102000000000011000000000001018000000000108100000000011000000000001082000000000110000097000000000000016100000000000017410900000000000000009999123100000010000000000000BRALUPACNOR8110
012020032602ALUP3       010ALUPAR      ON      N2   R$  000000000105000000000011240000000001022000000000108100000000011240000000001072000000000112400107000000000000026600000000000028763900000000000000009999123100000010000000000000BRALUPACNOR8110
012020031696ALUP3F      020ALUPAR      ON      N2   R$  000000000100000000000010970000000000950000000000099700000000010000000000000940000000000108600020000000000000000285000000000000284245000000000000009999123100000010000000000000BRALUPACNOR8110
012020031796ALUP3F      020ALUPAR      ON      N2   R$  000000000099900000000010990000000000905000000000104900000000010780000000000981000000000108000015000000000000000327000000000000343101000000000000009999123100000010000000000000BRALUPACNOR8110
012020031896ALUP3F      020ALUPAR      ON      N2   R$  000000000090600000000010400000000000888000000000092100000000010400000000001040000000000105000015000000000000000286000000000000263549000000000000009999123100000010000000000000BRALUPACNOR8110
012020031996ALUP3F      020ALUPAR      ON      N2   R$  000000000090000000000010350000000000887000000000093800000000010330000000000922000000000103300013000000000000000246000000000000230970000000000000009999123100000010000000000000BRALUPACNOR8110
012020032096ALUP3F      020ALUPAR      ON      N2   R$  000000000101000000000011080000000000989000000000105500000000010160000000001000000000000109800019000000000000000221000000000000233277000000000000009999123100000010000000000000BRALUPACNOR8110
012020032396ALUP3F      020ALUPAR      ON      N2   R$  000000000100000000000010800000000000900000000000097900000000010000000000000980000000000105000015000000000000000402000000000000393823000000000000009999123100000010000000000000BRALUPACNOR8110
012020032496ALUP3F      020ALUPAR      ON      N2   R$  000000000106000000000011080000000001003000000000105900000000010620000000001007000000000107800010000000000000000161000000000000170510000000000000009999123100000010000000000000BRALUPACNOR8110
012020032596ALUP3F      020ALUPAR      ON      N2   R$  000000000107800000000011080000000001067000000000109000000000010670000000001067000000000110800012000000000000000221000000000000241033000000000000009999123100000010000000000000BRALUPACNOR8110
012020032696ALUP3F      020ALUPAR      ON      N2   R$  000000000110800000000011300000000001000000000000109100000000010820000000001022000000000110800021000000000000000475000000000000518530000000000000009999123100000010000000000000BRALUPACNOR8110
012020031702ALUP4       010ALUPAR      PN      N2   R$  000000000063200000000006700000000000619000000000064800000000006200000000000620000000000064000125000000000000040400000000000026188400000000000000009999123100000010000000000000BRALUPACNPR5110
012020031802ALUP4       010ALUPAR      PN      N2   R$  000000000062000000000006220000000000524000000000058700000000005430000000000543000000000058500155000000000000029000000000000017049600000000000000009999123100000010000000000000BRALUPACNPR5110
012020031902ALUP4       010ALUPAR      PN      N2   R$  000000000055000000000006480000000000549000000000057700000000005780000000000578000000000059700070000000000000015800000000000009116700000000000000009999123100000010000000000000BRALUPACNPR5110
012020032002ALUP4       010ALUPAR      PN      N2   R$  000000000066400000000006670000000000577000000000062300000000006480000000000599000000000064800132000000000000026100000000000016262400000000000000009999123100000010000000000000BRALUPACNPR5110
012020032302ALUP4       010ALUPAR      PN      N2   R$  000000000067000000000007290000000000550000000000060700000000005820000000000582000000000062700078000000000000015900000000000009656100000000000000009999123100000010000000000000BRALUPACNPR5110
012020032402ALUP4       010ALUPAR      PN      N2   R$  000000000060000000000006770000000000581000000000061900000000006000000000000595000000000061500106000000000000022700000000000014055700000000000000009999123100000010000000000000BRALUPACNPR5110
012020032502ALUP4       010ALUPAR      PN      N2   R$  000000000062200000000006350000000000570000000000059900000000006100000000000609000000000069200125000000000000023100000000000013844100000000000000009999123100000010000000000000BRALUPACNPR5110
012020032602ALUP4       010ALUPAR      PN      N2   R$  000000000060000000000006750000000000600000000000064300000000006470000000000641000000000065700098000000000000017200000000000011074000000000000000009999123100000010000000000000BRALUPACNPR5110
012020031696ALUP4F      020ALUPAR      PN      N2   R$  000000000072500000000007250000000000595000000000065100000000006590000000000630000000000065900058000000000000000991000000000000645964000000000000009999123100000010000000000000BRALUPACNPR5110
012020031796ALUP4F      020ALUPAR      PN      N2   R$  000000000065000000000007000000000000625000000000065400000000006330000000000631000000000068000058000000000000000935000000000000612383000000000000009999123100000010000000000000BRALUPACNPR5110
012020031896ALUP4F      020ALUPAR      PN      N2   R$  000000000063300000000006690000000000550000000000059400000000005900000000000550000000000062000079000000000000001226000000000000729041000000000000009999123100000010000000000000BRALUPACNPR5110
012020031996ALUP4F      020ALUPAR      PN      N2   R$  000000000055400000000006300000000000543000000000059100000000006200000000000580000000000062000046000000000000000912000000000000539041000000000000009999123100000010000000000000BRALUPACNPR5110
012020032096ALUP4F      020ALUPAR      PN      N2   R$  000000000065000000000007400000000000582000000000063700000000006480000000000612000000000064800059000000000000001227000000000000781706000000000000009999123100000010000000000000BRALUPACNPR5110
012020032396ALUP4F      020ALUPAR      PN      N2   R$  000000000065000000000006800000000000567000000000060400000000006590000000000580000000000065900064000000000000001083000000000000654385000000000000009999123100000010000000000000BRALUPACNPR5110
012020032496ALUP4F      020ALUPAR      PN      N2   R$  000000000062900000000006750000000000571000000000061300000000006400000000000600000000000069900068000000000000001394000000000000855407000000000000009999123100000010000000000000BRALUPACNPR5110
012020032596ALUP4F      020ALUPAR      PN      N2   R$  000000000064000000000006430000000000570000000000059900000000006300000000000630000000000068000059000000000000000835000000000000500788000000000000009999123100000010000000000000BRALUPACNPR5110
012020032696ALUP4F      020ALUPAR      PN      N2   R$  000000000063100000000007300000000000624000000000065200000000006600000000000647000000000067200038000000000000000635000000000000414582000000000000009999123100000010000000000000BRALUPACNPR5110
012020031702ALUP11      010ALUPAR      UNT     N2   R$  000000000222200000000024370000000002182000000000231600000000022800000000002275000000000229509065000000000001268300000000002938030500000000000000009999123100000010000000000000BRALUPCDAM15110
012020031802ALUP11      010ALUPAR      UNT     N2   R$  000000000217300000000022490000000001956000000000206300000000020860000000002073000000000208609757000000000001809200000000003733819200000000000000009999123100000010000000000000BRALUPCDAM15110
012020031902ALUP11      010ALUPAR      UNT     N2   R$  000000000208000000000022580000000002017000000000215300000000021350000000002130000000000214206135000000000001210500000000002606956800000000000000009999123100000010000000000000BRALUPCDAM15110
012020032002ALUP11      010ALUPAR      UNT     N2   R$  000000000225500000000023900000000002091000000000225400000000022760000000002260000000000227809067000000000001644900000000003708005300000000000000009999123100000010000000000000BRALUPCDAM15110
012020032302ALUP11      010ALUPAR      UNT     N2   R$  000000000236100000000023610000000002098000000000219300000000021570000000002155000000000216005559000000000001019700000000002236499200000000000000009999123100000010000000000000BRALUPCDAM15110
012020032402ALUP11      010ALUPAR      UNT     N2   R$  000000000230200000000023100000000002181000000000221900000000021810000000002181000000000220504359000000000000963700000000002138818500000000000000009999123100000010000000000000BRALUPCDAM15110
012020032502ALUP11      010ALUPAR      UNT     N2   R$  000000000218200000000023520000000002181000000000227700000000022910000000002291000000000231503224000000000000715400000000001629284000000000000000009999123100000010000000000000BRALUPCDAM15110
012020032602ALUP11      010ALUPAR      UNT     N2   R$  000000000227300000000024130000000002250000000000236700000000023600000000002360000000000238004114000000000001050200000000002486394000000000000000009999123100000010000000000000BRALUPCDAM15110
012020031696ALUP11F     020ALUPAR      UNT     N2   R$  000000000212200000000024070000000002000000000000222200000000022010000000002201000000000233000400000000000000008929000000000019847931000000000000009999123100000010000000000000BRALUPCDAM15110
012020031796ALUP11F     020ALUPAR      UNT     N2   R$  000000000221600000000024210000000002196000000000231500000000022730000000002273000000000229700361000000000000009398000000000021759927000000000000009999123100000010000000000000BRALUPCDAM15110
012020031896ALUP11F     020ALUPAR      UNT     N2   R$  000000000220800000000022430000000001960000000000207800000000021550000000002155000000000225700572000000000000012447000000000025865640000000000000009999123100000010000000000000BRALUPCDAM15110
012020031996ALUP11F     020ALUPAR      UNT     N2   R$  000000000210200000000023000000000002017000000000212000000000022000000000002200000000000230000751000000000000016813000000000035656233000000000000009999123100000010000000000000BRALUPCDAM15110
012020032096ALUP11F     020ALUPAR      UNT     N2   R$  000000000236700000000023930000000002099000000000225100000000022770000000002277000000000228000674000000000000015413000000000034706862000000000000009999123100000010000000000000BRALUPCDAM15110
012020032396ALUP11F     020ALUPAR      UNT     N2   R$  000000000230100000000023250000000002100000000000219100000000021630000000002163000000000216800495000000000000011599000000000025418941000000000000009999123100000010000000000000BRALUPCDAM15110
012020032496ALUP11F     020ALUPAR      UNT     N2   R$  000000000233800000000023380000000002200000000000224600000000022050000000002205000000000221500282000000000000007666000000000017220057000000000000009999123100000010000000000000BRALUPCDAM15110
012020032596ALUP11F     020ALUPAR      UNT     N2   R$  000000000220500000000023400000000002185000000000227300000000023000000000002300000000000233700385000000000000009101000000000020693660000000000000009999123100000010000000000000BRALUPCDAM15110
012020032696ALUP11F     020ALUPAR      UNT     N2   R$  000000000228800000000024100000000002263000000000236600000000024000000000002390000000000240000361000000000000008166000000000019326017000000000000009999123100000010000000000000BRALUPCDAM15110
012020031612ALZR11      010FII ALIANZA CI           R$  000000001010000000000101000000000009650000000000986500000000098800000000009866000000000988001481000000000000017120000000000168888923000000000000009999123100000010000000000000BRALZRCTF006126
012020031712ALZR11      010FII ALIANZA CI           R$  000000000975200000000098700000000009470000000000959100000000094750000000009475000000000954001496000000000000018615000000000178544787000000000000009999123100000010000000000000BRALZRCTF006126
012020031812ALZR11      010FII ALIANZA CI           R$  000000000940000000000094000000000008273000000000880900000000088000000000008755000000000880001800000000000000018042000000000158932223000000000000009999123100000010000000000000BRALZRCTF006126
012020031912ALZR11      010FII ALIANZA CI  ER       R$  000000000860000000000087400000000007000000000000781500000000084200000000008420000000000849901032000000000000015405000000000120403058000000000000009999123100000010000000000000BRALZRCTF006127
012020032012ALZR11      010FII ALIANZA CI  ER       R$  000000000855000000000091000000000008380000000000889800000000085990000000008599000000000863000991000000000000013664000000000121583969000000000000009999123100000010000000000000BRALZRCTF006127
012020032312ALZR11      010FII ALIANZA CI  ER       R$  000000000850400000000085040000000008181000000000835500000000083510000000008351000000000839000639000000000000009025000000000075408990000000000000009999123100000010000000000000BRALZRCTF006127
012020032412ALZR11      010FII ALIANZA CI  ER       R$  000000000850000000000091990000000008401000000000872600000000084010000000008401000000000869000469000000000000004997000000000043606438000000000000009999123100000010000000000000BRALZRCTF006127
012020032512ALZR11      010FII ALIANZA CI  ER       R$  000000000896000000000095000000000008960000000000920400000000093940000000009390000000000939400663000000000000008975000000000082606129000000000000009999123100000010000000000000BRALZRCTF006127
012020032612ALZR11      010FII ALIANZA CI  ER       R$  000000000940000000000100750000000009400000000000984700000000099000000000009900000000000992900906000000000000009434000000000092904626000000000000009999123100000010000000000000BRALZRCTF006127
012020031702AMAR3       010LOJAS MARISAON      NM   R$  000000000068900000000007040000000000594000000000063500000000005940000000000594000000000059616111000000000006540700000000004153940800000000000000009999123100000010000000000000BRAMARACNOR4112
012020031802AMAR3       010LOJAS MARISAON      NM   R$  000000000052700000000005390000000000353000000000042500000000003960000000000396000000000039717634000000000006520300000000002775810000000000000000009999123100000010000000000000BRAMARACNOR4112
012020031902AMAR3       010LOJAS MARISAON      NM   R$  000000000038000000000004380000000000314000000000038600000000004300000000000430000000000043122229000000000009611300000000003716723700000000000000009999123100000010000000000000BRAMARACNOR4112
012020032002AMAR3       010LOJAS MARISAON      NM   R$  000000000048000000000004940000000000438000000000046700000000004940000000000490000000000049422020000000000011218700000000005241566600000000000000009999123100000010000000000000BRAMARACNOR4112
012020032302AMAR3       010LOJAS MARISAON      NM   R$  000000000049500000000004950000000000365000000000038800000000003750000000000375000000000037816348000000000008263300000000003210360300000000000000009999123100000010000000000000BRAMARACNOR4112
012020032402AMAR3       010LOJAS MARISAON      NM   R$  000000000042000000000004300000000000369000000000040100000000004030000000000402000000000040418388000000000015561600000000006247894600000000000000009999123100000010000000000000BRAMARACNOR4112
012020032502AMAR3       010LOJAS MARISAON      NM   R$  000000000041500000000005550000000000397000000000045300000000005370000000000535000000000053715442000000000007224200000000003273300500000000000000009999123100000010000000000000BRAMARACNOR4112
012020032602AMAR3       010LOJAS MARISAON      NM   R$  000000000054000000000007040000000000515000000000058600000000005630000000000563000000000056424118000000000013515300000000007931387800000000000000009999123100000010000000000000BRAMARACNOR4112
012020031696AMAR3F      020LOJAS MARISAON      NM   R$  000000000083800000000008400000000000665000000000074200000000006870000000000687000000000070101259000000000000025469000000000018898251000000000000009999123100000010000000000000BRAMARACNOR4112
012020031796AMAR3F      020LOJAS MARISAON      NM   R$  000000000070800000000007100000000000601000000000064100000000006010000000000601000000000062500901000000000000019973000000000012813635000000000000009999123100000010000000000000BRAMARACNOR4112
012020031896AMAR3F      020LOJAS MARISAON      NM   R$  000000000059100000000005910000000000359000000000043800000000003920000000000391000000000039201399000000000000023085000000000010133695000000000000009999123100000010000000000000BRAMARACNOR4112
012020031996AMAR3F      020LOJAS MARISAON      NM   R$  000000000039800000000004380000000000317000000000038300000000004180000000000415000000000041801267000000000000035508000000000013614015000000000000009999123100000010000000000000BRAMARACNOR4112
012020032096AMAR3F      020LOJAS MARISAON      NM   R$  000000000045000000000005100000000000439000000000046400000000004650000000000465000000000046800967000000000000024369000000000011324159000000000000009999123100000010000000000000BRAMARACNOR4112
012020032396AMAR3F      020LOJAS MARISAON      NM   R$  000000000047200000000004950000000000366000000000038900000000003980000000000397000000000039801695000000000000035284000000000013738368000000000000009999123100000010000000000000BRAMARACNOR4112
012020032496AMAR3F      020LOJAS MARISAON      NM   R$  000000000041000000000004290000000000370000000000040300000000004040000000000403000000000040401268000000000000027956000000000011283655000000000000009999123100000010000000000000BRAMARACNOR4112
012020032596AMAR3F      020LOJAS MARISAON      NM   R$  000000000040500000000005490000000000401000000000044800000000005250000000000525000000000053001528000000000000035089000000000015753484000000000000009999123100000010000000000000BRAMARACNOR4112
012020032696AMAR3F      020LOJAS MARISAON      NM   R$  000000000053700000000007010000000000516000000000058400000000005670000000000567000000000056802233000000000000046958000000000027437457000000000000009999123100000010000000000000BRAMARACNOR4112
012020031702AMGN34      010AMGEN       DRN          R$  000000010266500000001026650000000101296000000010263600000001012960000000000000000000000000000006000000000000009510000000000976070350000000000000009999123100000010000000000000BRAMGNBDR004133
012020031802AMGN34      010AMGEN       DRN          R$  000000010600000000001060000000000105279000000010575900000001052790000000000000000000000000000002000000000000000600000000000063455800000000000000009999123100000010000000000000BRAMGNBDR004133
012020031902AMGN34      010AMGEN       DRN          R$  000000010219100000001040690000000102191000000010313000000001040690000000000000000000000000000002000000000000000200000000000020626000000000000000009999123100000010000000000000BRAMGNBDR004133
012020032302AMGN34      010AMGEN       DRN          R$  000000009510500000000951050000000094933000000009506500000000949330000000000000000000000000000003000000000000000430000000000040877950000000000000009999123100000010000000000000BRAMGNBDR004133
012020032402AMGN34      010AMGEN       DRN          R$  000000010006000000001026690000000100060000000010092900000001026690000000000000000000000000000002000000000000000300000000000030278900000000000000009999123100000010000000000000BRAMGNBDR004133
012020032502AMGN34      010AMGEN       DRN          R$  000000009945900000000994590000000099459000000009945900000000994590000000000000000000000000000001000000000000000200000000000019891800000000000000009999123100000010000000000000BRAMGNBDR004133
012020032602AMGN34      010AMGEN       DRN          R$  000000009730000000000973000000000097300000000009730000000000973000000000000000000000000000000001000000000000000200000000000019460000000000000000009999123100000010000000000000BRAMGNBDR004133
012020031702AMZO34      010AMAZON      DRN          R$  000000044514000000004555640000000441990000000045311500000004504500000000000000000000000000000010000000000000002120000000000960604170000000000000009999123100000010000000000000BRAMZOBDR002101
012020031802AMZO34      010AMAZON      DRN          R$  000000045891000000004711000000000451900000000045774100000004711000000000000000000000000000000016000000000000003110000000001423577600000000000000009999123100000010000000000000BRAMZOBDR002101
012020031902AMZO34      010AMAZON      DRN          R$  000000048008400000004940040000000479448000000049116900000004930000000000000000000000049300000009000000000000000530000000000260319900000000000000009999123100000010000000000000BRAMZOBDR002101
012020032002AMZO34      010AMAZON      DRN          R$  000000048150000000004848300000000463140000000047634800000004631400000000407000000000000000000038000000000000000710000000000338207110000000000000009999123100000010000000000000BRAMZOBDR002101
012020032302AMZO34      010AMAZON      DRN          R$  000000047366100000004841420000000473377000000047484200000004841420000000450000000000000000000005000000000000002670000000001267828170000000000000009999123100000010000000000000BRAMZOBDR002101
012020032402AMZO34      010AMAZON      DRN          R$  000000049077600000004907760000000490550000000049076500000004905500000000410000000000000000000002000000000000000210000000000103060700000000000000009999123100000010000000000000BRAMZOBDR002101
012020032502AMZO34      010AMAZON      DRN          R$  000000048291200000004829640000000480870000000048240500000004816270000000407000000000000000000006000000000000001110000000000535470140000000000000009999123100000010000000000000BRAMZOBDR002101
012020032602AMZO34      010AMAZON      DRN          R$  000000047430000000004807680000000474300000000047892000000004807680000000407000000000000000000002000000000000000280000000000134097600000000000000009999123100000010000000000000BRAMZOBDR002101
012020031696AMZO34F     020AMAZON      DRN          R$  000000040000000000004146690000000400000000000040488900000004146690000000405001000000045580000002000000000000000003000000000001214669000000000000009999123100000010000000000000BRAMZOBDR002101
012020031796AMZO34F     020AMAZON      DRN          R$  000000044316000000004555640000000443160000000045158200000004512000000000405001000000049000000004000000000000000015000000000006773740000000000000009999123100000010000000000000BRAMZOBDR002101
012020031896AMZO34F     020AMAZON      DRN          R$  000000046163400000004616340000000452000000000045670800000004520000000000410088000000045200000009000000000000000018000000000008220750000000000000009999123100000010000000000000BRAMZOBDR002101
012020031996AMZO34F     020AMAZON      DRN          R$  000000047110000000004850000000000471100000000047638800000004711000000000425888000000048400000007000000000000000023000000000010956932000000000000009999123100000010000000000000BRAMZOBDR002101
